:020000040800F2
:1000000048070020010100085D040008F303000810
:1000100059040008A3020008FF0F000800000000B8
:1000200000000000000000000000000001080008BF
:10003000A702000800000000E5040008150C0008F5
:100040001B0100081B0100081B0100081B01000820
:100050001B0100081B0100081B0100081B01000810
:100060001B0100081B0100081B0100081B01000800
:100070001B0100081B0100081B0100081B010008F0
:100080001B0100081B0100081B0100081B010008E0
:100090001B0100081B0100081B0100081B010008D0
:1000A0001B0100081B0100081B0100081B010008C0
:1000B0001B0100081B0100081B0100081B010008B0
:1000C0001B0100081B0100081B0100081B010008A0
:1000D0001B0100088D0D00081B0100081B01000812
:1000E0001B0100081B0100081B010008DFF80CD0F1
:1000F00000F064F800480047B118000848070020E5
:100100000648804706480047FEE7FEE7FEE7FEE7B1
:10011000FEE7FEE7FEE7FEE7FEE7FEE7C10C0008AC
:10012000ED000008421C10F8011B0029FBD1801AC9
:10013000704770B5064600F0E5FF046805460A22E0
:100140000021304600F002F82C6070BD2DE9F04728
:1001500091460F4680460446002614F8015B2DB1F7
:1001600000F03EF80068405DC007F6D12B2D02D0AC
:100170002D2D18D0641E4A463946204600F034F82A
:1001800027B13968A14201D1C7F8008071054FF04D
:1001900002040BD54042002803DD00F0B3FF0460E9
:1001A000A007BDE8F08746F48066E4E70028F8DAA7
:1001B00000F0A8FF04606FF00040F2E7064C074D26
:1001C00006E0E06840F0010394E807009847103427
:1001D000AC42F6D3FFF78EFFE81B0008081C0008AE
:1001E00000487047F81A00082DE9F05F8246007851
:1001F000002715468B460AF10104B946302801D084
:100200009DB113E014F8010B0127782803D058287A
:1002100001D045B10AE00DB1102D07D100271025FE
:1002200014F8010B02E0082500E00A250026B0467C
:100230000EE005FB080005FB06F1012701EB104667
:100240001FFA80F8B6F5803F00D3B94614F8010BC9
:10025000294600F018F80028EBDABBF1000F05D0B2
:100260000FB1641E00E05446CBF80040B9F1000F16
:1002700006D000F047FF02210160C81EBDE8F09FD4
:1002800048EA0640FAE73A2800D2303820F0200247
:10029000412A01D3A2F13700884201D34FF0FF3049
:1002A000704700BFFEE770470549096821F010015B
:1002B000034A11601146096801431160704700004C
:1002C0000020024001460020034A106800F0380078
:1002D0000843106070470000002002402DE9F04103
:1002E000024600250026002000230024002791F864
:1002F00003C00CF00F0591F803C00CF0100CBCF11A
:10030000000F03D091F802C04CEA050591F800C037
:10031000BCF1000F31D0146800202BE04FF0010C2D
:100320000CFA00F3B1F800C00CEA03069E4220D19B
:1003300083004FF00F0C0CFA03F7BC4305FA03FCE3
:100340004CEA040491F803C0BCF1280F06D14FF029
:10035000010C0CFA00FCC2F814C00AE091F803C0CA
:10036000BCF1480F05D14FF0010C0CFA00FCC2F8AB
:1003700010C0401C0828D1D31460B1F800C0BCF1F3
:10038000FF0F34DD546800202EE000F1080C4FF020
:10039000010808FA0CF3B1F800C00CEA03069E420B
:1003A00021D183004FF00F0C0CFA03F7BC4305FA80
:1003B00003FC4CEA040491F803C0BCF1280F05D1FA
:1003C00000F1080C08FA0CF8C2F8148091F803C088
:1003D000BCF1480F07D100F1080C4FF0010808FAF2
:1003E0000CF8C2F81080401C0828CED35460BDE839
:1003F000F08100BFFEE700003EB504460B4A07CA85
:100400008DE8070000250CB900203EBD002509E05D
:100410005DF82500214600F0B4FF08B10120F4E7A3
:10042000681CC5B2032DF3D30020EEE7681A00085C
:1004300008B5024607A000680090694605E0087804
:10044000904201D1012008BD491C08780028F6D14E
:1004500000BFF8E72000000000BFFEE77047000083
:1004600070B5002100230F22C47804B3154C246812
:1004700004F4E064C4F5E064210AC1F10403CA4055
:10048000447804FA03F184781440214309010E4CA6
:100490000678A155047804F01F050124AC400578C6
:1004A0006D11AD0005F1E025C5F8004109E00478C3
:1004B00004F01F050124AC40044D0678761145F880
:1004C000264070BD0CED00E000E400E080E100E0BB
:1004D00002490143024A1160704700000000FA051A
:1004E0000CED00E07047000001460020034A506810
:1004F00020F4404008435060704700000010024064
:1005000029B1064A92690243044B9A6104E0034A06
:1005100092698243014B9A617047000000100240CB
:100520000F48006840F001000D4908600846406827
:100530000C4908400A494860084600680A490840D2
:10054000074908600846006820F4802008600846D3
:10055000406820F4FE0048604FF41F008860704738
:10056000001002400000FFF8FFFFF6FE30B500214A
:100570000022002400232D4D6D6805F00C0121B1EF
:10058000042905D0082923D105E0294D056022E082
:10059000274D05601FE0254D6D6805F47012234D51
:1005A0006D6805F48034022505EB92421CB9214D9B
:1005B000554305600BE01D4D6D6805F400351DB118
:1005C0001C4D5543056002E0194D5543056002E09E
:1005D000174D056000BF00BF144D6D6805F0F001B8
:1005E0000909154D6B5C0568DD4045600F4D6D6870
:1005F00005F4E061090A104D6B5C4568DD408560DB
:100600000A4D6D6805F46051C90A0B4D6B5C456875
:10061000DD40C560054D6D6805F44041890B074D0F
:100620006B5CC568B5FBF3F5056130BD0010024099
:1006300000127A0000093D006100002071000020D6
:1006400010B501460022002300204A11012A02D1E0
:10065000094C236806E0022A02D1074C236A01E014
:10066000054C636A01F01F02012494401C400CB148
:10067000012000E0002010BD001002400248406848
:1006800000F00C00704700000010024001460020FE
:10069000034A506820F0F0000843506070470000A3
:1006A000001002401149096821F480310F4A11609D
:1006B0001146096821F480211160B0F5803F03D014
:1006C000B0F5802F0ED106E00849096841F4803169
:1006D000064A116007E00549096841F4A021034A70
:1006E000116000E000BF00BF704700000010024032
:1006F00001460020034A506820F4E060084350603F
:10070000704700000010024001460020034A506874
:1007100020F4605040EAC100506070470010024071
:10072000014908667047000000004242024600206E
:10073000044B586820F47C1042EA01031843014B33
:10074000586070470010024001460020034A50687C
:1007500020F0030008435060704700000010024082
:1007600038B5002000900024002500BF3120FFF79D
:1007700067FF05460098401C00900098B0F5A06FF8
:1007800001D0002DF2D03120FFF75AFF08B101242B
:1007900000E00024204638BD2DE9F04104464FF02A
:1007A0000008164E354600202070656000BF307886
:1007B000C8B13078FFF73CFE07466FB1B8F1000FC3
:1007C0000DD0002005F8010B2078401CC1B221702B
:1007D000201D40F8215002E0307805F8010B87F029
:1007E0000108761CE3E7B8F1000F04D02078401C24
:1007F000207000202870BDE8F081000095000020E6
:100800007047000010B50246002018E00F4B9B68AF
:100810000E4C247B1B5D02F8013B0C4B9B7B5B1E4B
:100820000A4CA37323461B7B5B1CDBB22373E47B64
:10083000A34202DB0023054C2373431C98B2034BF5
:100840009B7B002B01DD8842E0DB10BD50000020C7
:1008500001461048C07B0F4A927B801A002816DDA3
:100860000C4880680B4A527B81540A48807B401CAC
:10087000084A90731046407B401CC0B25073D27B34
:10088000904202DB0020034A507301207047002091
:10089000FCE700005000002030B503461348C07943
:1008A000124CA479001B82B28A4200DA11460A4631
:1008B00018E013F8010B0D4C24680C4D6D79605550
:1008C0000A488079401C094CA07120464079401CA0
:1008D000C0B26071E479A04202DB0020034C607179
:1008E000501E82B2002AE4D1084630BD50000020DC
:1008F00001460F488079002817DD0D4800680C4A32
:100900001279805C08700A488079401E084A90710C
:1009100010460079401CC0B21071D279904202DBBF
:100920000020034A1071012070470020FCE70000FE
:100930005000002001461048C0790F4A9279801A71
:10094000002816DD0C4800680B4A527981540A4889
:100950008079401C084A907110464079401CC0B212
:100960005071D279904202DB0020034A507101207D
:1009700070470020FCE700005000002070B50D48D3
:1009800000F034FBC4B200F0C1FB08B9012000E064
:100990000020054600BF012000F0CAFB00BF204632
:1009A000FFF756FF25B100BF002000F0C1FB00BFDC
:1009B00070BD0000003801402DE9F04104460D46AD
:1009C00000F0A4FB08B9012000E00020064600BFAB
:1009D000012000F0ADFB00BF29462046FFF712FFC3
:1009E000074626B100BF002000F0A2FB00BF38463A
:1009F000BDE8F0817047000038B500F087FB08B90A
:100A0000012000E00020044600BF012000F090FB20
:100A100000BF6846FFF76CFF28B19DF80010094839
:100A200000F0E9FA07E000BF002240F22771054814
:100A300000F04BFA00BF24B100BF002000F078FBAB
:100A400000BF38BD003801402DE9F04104460D4695
:100A500000F05CFB08B9012000E00020064600BF62
:100A6000012000F065FB00BF29462046FFF714FF78
:100A7000074626B100BF002000F05AFB00BF09481E
:100A8000007858B908488079002807DD00BF0122A6
:100A900040F22771054800F018FA00BF3846BDE85B
:100AA000F08100006000002050000020003801406C
:100AB00070B5044600F02AFB08B9012000E00020D0
:100AC000054600BF012000F033FB00BF2046FFF7C2
:100AD00031FF064609488079002807DD00BF012262
:100AE00040F22771064800F0F0F900BF25B100BFC1
:100AF000002000F01DFB00BF304670BD50000020FC
:100B00000038014010B500F001F810BD0CB5002010
:100B1000019000903348006840F48030314908600B
:100B200000BF3048006800F4003000900198401C7D
:100B30000190009818B90198B0F5A06FF1D129483B
:100B4000006800F4003010B10120009001E00020A6
:100B500000900098012843D12348006840F010001D
:100B6000214908600846006820F003000860084634
:100B7000006840F0020008601A484068194948605F
:100B80000846406848600846406840F48060486015
:100B90000846406820F47C1048600846406840F4ED
:100BA000E81048600846006840F08070086000BFA8
:100BB0000C48006800F000700028F9D0094840682F
:100BC00020F00300074948600846406840F00200F2
:100BD000486000BF0348406800F00C000828F9D1C5
:100BE0000CBD00000010024000200240042808D183
:100BF0004FF0E021096941F004014FF0E02211615A
:100C000007E04FF0E021096921F004014FF0E022F4
:100C10001161704710B500F05DFE10BD10B50021E8
:100C200000200022214B5B6803F00C0121B1042954
:100C300006D0082928D107E01D4B1E4C236027E071
:100C40001B4B1C4C236023E0184B5B6803F47010B3
:100C5000164B5B6803F48032022303EB904022B909
:100C6000154B4343134C23600DE0104B5B6803F4BA
:100C7000003323B1104B43430E4C236003E00C4B75
:100C800043430C4C236003E0094B0A4C236000BF34
:100C900000BF064B5B68C3F30313084CE15C054BD4
:100CA0001B68CB40034C236010BD000000100240C5
:100CB00000127A007800002000093D007C0000202E
:100CC00010B51348006840F001001149086008465B
:100CD0004068104908400E494860084600680E49BF
:100CE00008400B4908600846006820F4802008602E
:100CF0000846406820F4FE0048604FF41F008860FA
:100D0000FFF700FF4FF000600449086010BD0000CD
:100D1000001002400000FFF8FFFFF6FE08ED00E0C3
:100D200070B50420FFF762FF154800684FF47A722F
:100D3000B0FBF2F1481EB0F1807F01D301201BE02F
:100D4000481E4FF0E022506150170F22002804DBAC
:100D500013071C0E0B4B1C5406E013071D0E0A4B09
:100D600000F00F04241F1D5500BF00204FF0E022AB
:100D7000906107201061002008B100BFFEE770BD40
:100D80007800002000E400E018ED00E010B540F22B
:100D90002771194800F06FF830B1FFF72DFE40F2CF
:100DA0002771154800F035F840F22551124800F03F
:100DB00062F830B1FFF7E2FD40F225510E4800F035
:100DC00028F840F226610C4800F055F830B1FFF7E2
:100DD00011FE40F22661084800F01BF8252000288B
:100DE00007DB00F01F0201219140044A430942F849
:100DF000231000BF10BD00000038014080E200E079
:100E000001F40072B2F5007F00D100BFCA43028036
:100E1000704710B50022002340F66A14A14200D1A9
:100E200000BF0A1201249440A3B2DC43048010BD29
:100E300010B502460020108A4FF2FF0318400B88BD
:100E40004C8823438C882343CC8823431843108247
:100E500010BD0021018041808180C180704721B197
:100E6000828942F40052828104E082894DF6FF7348
:100E70001A408281704770B5024600240023002585
:100E8000002040F66A16B14200D100BFC1F34215FE
:100E900001F01F03012606FA03F3012D02D1968902
:100EA000334006E0022D02D1168A334001E0968AD3
:100EB00033400C12012606FA04F41688344013B1AC
:100EC0000CB1012000E0002070BDF0B50346002405
:100ED00000260025002040F66A17B94200D100BF65
:100EE0001846C1F3421401F01F06012707FA06F560
:100EF000012C01D10C3004E0022C01D1103000E0B3
:100F000014301AB107682F43076002E00768AF4347
:100F10000760F0BD2DE9F04786B005460E46002477
:100F2000A24600BFA1460027B08900B100BF2F46EE
:100F30002C8A4CF6FF700440F08804432C82AC8964
:100F40004EF6F3100440B088318908437189084394
:100F50000443AC81AC8A4FF6FF400440B08904439F
:100F6000AC8201A8FFF702FB1F48874202D1DDF8DF
:100F700010A001E0DDF80CA0A88900F4004040B109
:100F80000AEBCA0000EB0A1031684900B0FBF1F827
:100F900007E00AEBCA0000EB0A1031688900B0FBD9
:100FA000F1F86420B8FBF0F004012009642101FB92
:100FB0001089A88900F4004040B1322000EBC9003C
:100FC000B0FBF1F000F00700044308E0322000EB32
:100FD00009106421B0FBF1F000F00F0004432C81F4
:100FE00006B0BDE8F087000000380140014688885F
:100FF000C0F308007047C1F308028280704700BF49
:10100000FEE7000000B589B000BF01210520FFF711
:1010100077FA00BF00BF01218803FFF771FA00BF14
:101020004FF40070ADF8200018208DF82300032045
:101030008DF8220008A92948FFF750F904208DF8FF
:1010400023000002ADF8200008A92448FFF746F964
:1010500025208DF81C0001208DF81D0002208DF840
:101060001E0001208DF81F0007A8FFF7F9F905A859
:10107000FFF7EFFE05A91A48FFF7DAFE4FF4E1305B
:1010800001900C20ADF80E000020ADF81000ADF876
:101090000C00ADF80A00ADF8080001A91048FFF7F0
:1010A00039FF40F2E5510E48FFF7AAFE002240F258
:1010B00027710B48FFF709FF002240F2266108481C
:1010C000FFF703FF012240F225510548FFF7FDFE1F
:1010D00001210348FFF7C3FE09B000BD000801402D
:1010E000003801400FB4054B10B503A9044A02981B
:1010F00000F021F810BC5DF814FB0000711400082A
:101100008C0000200048704790000020EFF3108012
:10111000704702E008C8121F08C1002AFAD17047C0
:101120007047002001E001C1121F002AFBD1704767
:1011300080F3108870472DE9F84F9946924688460B
:101140000546002706E025280AD051464A46904722
:101150006D1C7F1C28780028F5D13846BDE8F88F33
:10116000002315F8011F18462E2915D115F8011F67
:1011700004232A290DD06FF02F022978A1F1300421
:10118000092C09D800EB800002EB400008446D1CDC
:10119000F3E758F8040B6D1C2A78002ADDD0632A87
:1011A00007D0732A0FD0104651464A4690477F1CFD
:1011B0002AE018F8042B8DF8002000218DF801108A
:1011C0006E46012103E058F8046B4FF0FF315A07D7
:1011D0004FF0000401D409E0641C84420BDA8C4215
:1011E000FADB325D002AF7D105E0641C8C42FCDB9F
:1011F000305D0028F9D1274404E016F8010B514670
:101200004A469047641EF8D26D1CA3E770B50446A9
:101210000D461646012C06D041210548FFF714FC67
:1012200000F0A7F870BD0C20FFF742FC00BFF9E703
:10123000FC1A00082DE9F04104460D461746022C21
:1012400005D0112107A0FFF7FFFBBDE8F08168681A
:10125000FEF76FFFC6B2304600F0F6F800F0ACF8CB
:1012600000BFF2E76572726F7220706172616D6526
:101270007465720D0A0000002DE9F04105460F4625
:101280009046012D07D041211148FFF7DDFB00F00A
:1012900070F8BDE8F081002415E004EB44010D4A2C
:1012A00002EB81018868FEF73DFF86B204EB440142
:1012B000084A02EB810188683146FFF7C5FB00F060
:1012C00058F8601CC4B2042CE7D300BFE1E700006B
:1012D000FC1A00080000002010B5044604B910BD37
:1012E00008E00820FFF7E4FB2020FFF7E1FB0820DF
:1012F000FFF7DEFB201EA4F10101CCB2F1D100BF4B
:10130000EDE7000030B50246184800210DE0531CFF
:101310005C5C437803EB430505EBC305031D03EB5E
:1013200045035B1C5C544B1CD9B213788B42EEDA3C
:101330001478437803EB430505EBC305031D03F85D
:1013400015408378052B02D283785B1C83708378E9
:101350005B1EC3704378037043785B1CDBB2437041
:10136000052B01D30023437030BD0000AA000020EC
:10137000704710B50D20FFF79BFB0A20FFF798FB85
:1013800010BD024602B109B90020704705E010788F
:1013900008B90120F9E7521C491C10780B789842D3
:1013A000F5D00020F1E710B500F06AF804460CB95A
:1013B00000F098FA10BD000010B50F48007808B191
:1013C0000EA000E00FA0014610A0FFF78BFE14480E
:1013D000007808B109A000E00AA0014611A0FFF7BB
:1013E00081FE1448007808B104A000E005A0014681
:1013F00011A0FFF777FE10BD45000020656E616209
:101400006C65000064697361626C65006462675FAB
:10141000766572626F733A2025730D0A0000000032
:10142000460000206462675F7761726E3A20257320
:101430000D0A0000470000206462675F6572723A1F
:101440002025730D0A00000000F00101054A11700B
:10145000C0F34001044A1170C0F38001034A1170C7
:101460007047000045000020460000204700002093
:1014700070B504460D46E0B2FFF71AFB204670BD7A
:101480001CB53D4C3D48007830B101280DD00228F4
:1014900055D0032867D15DE0002020703E20FFF783
:1014A00007FB01203549087000BF012101A8FFF7A3
:1014B00083FA002842D09DF80400082808D120783B
:1014C000A0B32078401E20700120FFF705FF35E013
:1014D0009DF804000D2813D1FFF74BFF207818B9B1
:1014E00000202649087029E000212278601C8154E0
:1014F00000BF00202149087000BF032008701DE0D4
:101500009DF80400202812DB9DF804007F280EDCE3
:101510002078142812DA9DF804102278501C2070CC
:10152000601C81549DF80400FFF7C2FA06E09DF8A4
:1015300004001B2802D102201049087019E06846F7
:1015400000F01EF828B9009800F08EF801200B4931
:1015500008700EE02046FFF7D5FE00BF00200749C7
:10156000087000BF1CBD00BF00200449087000BF08
:1015700000BF00BF0120F5E79400002044000020D8
:1015800010B50446002020603348007820B10128BF
:1015900009D002285BD12EE00020304908600120EC
:1015A0002D49087000BF2D480068B0F5FA7F19D2A8
:1015B00001212B48FFF700FA70B1294800784FF459
:1015C000D81101EB0020274908600020234908605A
:1015D0000220214908700DE020480068401C1F4986
:1015E000086007E01B20206000BF00201A49087037
:1015F00000BF10BD2CE019480068B0F5FA7F1DD27D
:1016000001211748FFF7D8F990B11648006814492E
:1016100009780844134908600020104908601148FF
:101620000068206000BF00200B49087000BFE0E7A1
:101630000A480068401C0949086007E01B20206038
:1016400000BF00200449087000BFD2E700E000BFDF
:1016500000BF0120CDE70000350000203800002049
:101660003C0000204000002010B504460C482044F7
:1016700038B1022808D0A0F6F13040B101280CD1D1
:1016800008E000F05BF809E000F086F806E000F002
:10169000C3F803E000F006F800E000BF00BF10BD93
:1016A000B0B0E4FF10B523488078002841DD22491E
:1016B0000878FFF711FE1F48007800EB400101EBAE
:1016C000C0011C48001D10F8114000201A49087084
:1016D0001CE01848007800EB400101EBC001154800
:1016E000001D00EB4100401C13490978415C124881
:1016F0000278401C8154411E0A780146885CFFF73D
:10170000D7F90D480078401C0B4908700A4800784A
:10171000A042DEDB074800780649C978884203D139
:1017200000200449087004E002480078401C014988
:10173000087010BDAA0000209400002010B51448C5
:1017400001781448007800EB400202EBC002114817
:10175000001D10F81200814218DA0E48007800EBE4
:10176000400101EBC0010B48001D00EB4100401C93
:1017700007490978445C064801780078401C044A0F
:101780001070501C44542046FFF792F910BD000021
:1017900094000020AA00002010B51D4801781D48C3
:1017A000007800EB400202EBC0021A48001D10F85E
:1017B000120081422BDA1748007800EB400101EB60
:1017C000C0011448001D10F811401CE011480078B9
:1017D00000EB400101EBC0010E48001D00EB410091
:1017E000401C0B490978415C09480278401C81542F
:1017F000411E0A780146885CFFF75AF904480078D0
:10180000401C0349087002480078A042DEDB10BD8E
:1018100094000020AA00002010B5224880780028FB
:101820003FDD21490878FFF757FD1E48007800EB9F
:10183000400101EBC0011B48001D10F811400020C1
:10184000194908701CE01748007800EB400101EBD3
:10185000C0011448001D00EB4100401C12490978EA
:10186000415C11480278401C8154411E0A780146AF
:10187000885CFFF71DF90C480078401C0A49087085
:1018800009480078A042DEDB0648007820B9054808
:10189000C0780449087004E002480078401E0149FD
:1018A000087010BDAA000020940000207047704707
:1018B00000F05EF800F096F8FFF732FAFFF7A2FBAF
:1018C000FFF756FDFFF7F2FF03E0FFF76CFDFFF7B0
:1018D000EEFFFAE702480068401C014908607047C3
:1018E0004800002070B51A48FEF756FF18480078E7
:1018F000012805DA142117A0FFF7A6F8FFF739FD34
:101900001349486800F074F8044634B94121174877
:10191000FFF79AF8FFF72DFD19E00D48007802282F
:101920000FD10B498868FEF767FD50B1A068FEF73C
:10193000F9FB85B22946A068FFF786F8FFF719FD85
:1019400005E0034908782246091D6368984770BD81
:101950001C0100207468726F7720612070726F67BD
:1019600072616D732062756700000000FC1A000848
:1019700010B5FEF7D5FD4FF48030FEF793FEFEF76D
:10198000EFFE0446012C2AD11020FEF78DFC022028
:10199000FEF798FC0020FEF779FE0020FEF7B4FE6B
:1019A000A002FEF7A5FEE003FEF79EFD4FF4E01156
:1019B0002004FEF7BBFE0120FEF7B2FE00BF392077
:1019C000FEF73EFE0028FAD00220FEF7BDFE00BF63
:1019D000FEF754FE0828FBD1FFF720F901E000BF15
:1019E000FEE710BD10B54FF4A060FEF771FD10BD0D
:1019F00030B5054600240DB9002030BD10E004EBE1
:101A00004400164A52F820102846FFF7BAFC28B1C5
:101A100004EB4400114901EB8000EEE7601CC4B206
:101A2000042CECD3002412E004EB44000C4A1268AE
:101A300052F820102846FFF7A4FC30B104EB440014
:101A40000749096801EB8000D7E7601CC4B205486C
:101A500000788442E8DB0020CFE70000000000208F
:101A60003000002034000020441B00089C1B0008AC
:101A7000401B000800404040404040404040414141
:101A80004141414040404040404040404040404053
:101A900040404040400502020202020202020202ED
:101AA00002020202022020202020202020202002EA
:101AB000020202020202909090909090101010107A
:101AC0001010101010101010101010101010101016
:101AD00002020202020288888888888808080808AA
:101AE0000808080808080808080808080808080876
:101AF0000202020240000000751A000809426164F7
:101B000020636F6D6D616E64206F722066696C6515
:101B1000206E616D652C616E642075736520276889
:101B2000656C7027206F7220273F2720746F206715
:101B30006574206D6F726520696E666F210000000C
:101B40003F000000480000000968656C70092D2DF9
:101B500020486F7720746F20757365207468652046
:101B6000636F6E736F6C6500093F092D2D207361E3
:101B70006D652061732068656C702C486F772074E8
:101B80006F207573652074686520636F6E736F6C6A
:101B90006500000064656275670000006800000071
:101BA000096465627567092D2D206465627567207B
:101BB0006C6576656C20636F6E74726F6C000000EC
:101BC00009636C656172092D2D20436C656172207B
:101BD00053637265656E000068656C7000000000FC
:101BE000636C656172000000081C000800000020A2
:101BF00094000000121100089C1C000894000020B2
:101C0000B406000022110008E01B00080D120008B5
:101C1000C01B0008D81B000879120008481B0008E8
:101C2000401B000879120008681B0008941B00087C
:101C300035120008A01B0008000000000000000092
:101C40000000000000000000000000000000000193
:101C5000000000000000000048010020000000FF1C
:101C600047020020000000FF000000000001020306
:101C70000401020304060708090204060800000024
:101C800000A24A040000000000000000010203045A
:0C1C90000607080900000000000000002A
:04000005080000ED02
:00000001FF
